:020000040800F2
:1000000000000220F1C7010841C8010841C80108E9
:1000100041C8010841C8010841C8010800000000AA
:1000200000000000000000000000000041C80108BE
:1000300041C801080000000041C80108C1190208B8
:1000400041C8010841C8010841C8010841C8010868
:1000500041C8010841C8010841C8010841C8010858
:1000600041C8010841C8010841C8010841C8010848
:1000700041C8010841C8010841C8010879190208AE
:1000800041C8010841C8010841C8010841C8010828
:1000900041C8010841C8010841C80108311A0208D5
:1000A00041C8010841C801084D1A020841C80108A9
:1000B00041C8010841C8010841C8010841C80108F8
:1000C00041C8010841C8010841C80108011A0208D5
:1000D00041C8010841C8010841C8010841C80108D8
:1000E00041C8010841C80108D119020841C80108E6
:1000F00041C8010841C8010841C8010841C80108B8
:1001000041C8010841C8010841C8010841C80108A7
:1001100041C8010841C8010841C8010841C8010897
:100120003D19020841C801084919020841C80108DF
:1001300041C80108000000000000000041C801089B
:1001400041C8010841C8010841C8010891190208C5
:1001500041C801086119020841C80108191A0208BA
:10016000A9190208E919020841C8010841C8010893
:1001700041C8010841C8010800000000000000005B
:1001800041C8010841C801087400000000200008AF
:100190000300000000200008030000000000000031
:1001A0000000000061000000682200080E0000004E
:1001B000682200080E0000007822000809000000F4
:1001C0006200000084220008110000008422000860
:1001D00011000000982200080C00000073000000CD
:1001E000A82200080B000000B4220008460000000E
:1001F000982200080C00000069000000FC220008A2
:100200000C0000000C23000831000000402300080F
:100210000D0000006F000000502300080C000000DB
:100220006023000831000000942300080D00000046
:1002300064000000A42300080D000000B42300089F
:1002400032000000E82300080E0000002021000812
:100250000B000000202100080B000000000000003F
:100260002C210008040000003421000807000000D1
:10027000070000003C2100080400000044210008A1
:1002800004000000000000004C21000806000000EF
:100290004C2100080600000008000000542100085E
:1002A0000B000000542100080B00000008000000B3
:1002B0006021000805000000602100080500000022
:1002C00008000000682100080A00000068210008FA
:1002D0000A00000008000000742100080D00000062
:1002E000742100080D0000000000000084210008B7
:1002F000030000008421000803000000010000004A
:10030000882100080C000000982100080800000067
:1003100002000000000000000000000000000000DB
:100320000000000000000000A421000804000000FC
:10033000A42100080400000003000000AC21000814
:100340000D000000AC2100080D00000004000000BA
:10035000BC21000808000000BC21000808000000C3
:1003600000000000C821000811000000C82100089A
:10037000110000000000000000000000000000006C
:10038000000000000000000000000000000000006D
:10039000000000000000000000000000000000005D
:1003A000000000000000000000000000000000004D
:1003B00000000000DC21000805000000DC2100082E
:1003C0000500000000000000E42100080E0000000D
:1003D000E42100080E000000000000000000000002
:1003E000000000000000000000000000000000000D
:1003F000F421000804000000F421000804000000BB
:1004000009000000FC210008070000003C21000852
:1004100004000000000000000422000809000000A1
:10042000A4210008040000000500000010220008BC
:100430001200000010220008120000000600000058
:10044000DC20000803000000DC200008030000009E
:1004500000000000242200080900000024220008F7
:100460000900000000000000302200080900000020
:100470003022000809000000000000003C220008B3
:100480000A0000003C2200080A00000000000000F2
:100490004822000804000000482200080400000070
:1004A0000800000050220008080000005022000848
:1004B00008000000000000005C22000808000000A6
:1004C0005C2200080800000000000000F82300087B
:1004D000FC230008020000000200000000240008C5
:1004E00004240008010000000200000008240008A5
:1004F0000C24000802000000020000001024000884
:100500001424000801000000010000001824000865
:100510001424000801000000020000000820000868
:100520001C24000802000000020000002024000833
:100530002424000801000000020000002824000814
:100540002C240008010000000100000030240008F5
:1005500034240008020000000200000038240008D3
:100560003C240008080000000100000048240008A6
:100570004C24000801000000010000005024000885
:100580005424000806000000010000000C200008B0
:100590005C24000801000000020000006024000844
:1005A0006424000801000000020000006824000824
:1005B0006C24000802000000020000007024000803
:1005C00074240008010000000200000078240008E4
:1005D0007C240008020000000200000080240008C3
:1005E00084240008020000000200000088240008A3
:1005F0003C2300080100000002000000B4200008B5
:100600001C20000802000000020000008C240008EA
:1006100090240008030000000200000050210008A0
:100620009424000802000000020000009824000842
:100630009C2400080200000002000000A024000822
:10064000A42400080100000002000000A824000803
:10065000AC2400080200000002000000B0240008E2
:10066000B42400080200000002000000B8240008C2
:10067000BC2400080100000002000000C0240008A3
:100680004C2400080100000002000000C4240008FF
:10069000C82400080200000001000000CC2400086B
:1006A000D02400080500000001000000D824000844
:1006B000DC240008020000000200000020220008E4
:1006C000BC2400080100000001000000E024000834
:1006D000E42400080100000001000000E8240008F4
:1006E000EC2400080300000001000000F0240008D2
:1006F000F42400080200000002000000F8240008B2
:10070000FC2400080200000002000000742200081F
:100710000025000801000000020000000425000878
:100720000825000802000000020000000C25000857
:100730001025000801000000020000001425000838
:100740001825000803000000020000001C25000816
:1007500020250008020000000100000024250008F8
:100760001025000801000000010000001020000812
:100770002825000802000000020000002C250008C7
:1007800030250008010000000300000034250008A7
:100790003825000802000000020000003C25000887
:1007A0004025000803000000020000004425000866
:1007B0004825000801000000020000004C25000848
:1007C000502500080200000002000000042000087C
:1007D0005425000807000000010000005C25000807
:1007E00054250008070000000100000060250008F3
:1007F00064250008080000000100000070250008C2
:10080000642500080800000001000000000000004E
:1008100000000000000000000000000000000000D8
:100820004FBB610567ACDD3F182D4454FB21E93F08
:100830009BF681D20B73EF3F182D4454FB21F93FF7
:10084000E2652F227F2B7A3C075C143326A6813C7D
:10085000BDCBF07A8807703C075C143326A6913C28
:10086000FB21F93FFB2109407CD91240FB211940B3
:100870007A6A1F407CD92240BBFD2540FB212940DC
:100880003A462C407A6A2F405C4731407CD932404E
:100890009C6B3440BBFD3540DB8F3740FB2139403A
:1008A0001BB43A403A463C405AD83D407A6A3F40F1
:1008B0004C7E40405C4741406C1042407CD94240F5
:1008C0008CA243409C6B4440AC344540BBFD45404A
:1008D000CBC64640DB8F4740EB584840FB214940A0
:1008E00083F9A200444E6E00FC291500D157270061
:1008F000DD34F50062DBC0003C9995004190430077
:100900006351FE00BBDEAB00B761C5003A6E240048
:10091000D24D42004906E00009EA2E001C92D100A7
:10092000EB1DFE0029B11C00E83EA700F535820052
:1009300044BB2E009CE98400B4267000417E5F0019
:10094000D6913900538339009CF439008B5F8400C1
:1009500028F9BD00F81F3B00DEFF97000F98050047
:10096000112FEF000A5A8B006D1F6D00CF7E3600ED
:1009700009CB2700464FB7009E663F002DEA5F0077
:10098000BA277500E5EBC7003D7BF100F73907009A
:1009900092528A00FB6BEA001FB15F00085D8D0078
:1009A000300356007BFC4600F0AB6B0020BCCF0050
:1009B00036F49A00E3A91D005E619100081BE60071
:1009C00085996500A0145F008D40680080D8FF0005
:1009D00027734D0006063100CA561500C9A87300DA
:1009E0007BE260006B8CC00002000000030000008E
:1009F000040000000600000000000040FB21F93F59
:100A0000000000002D44743E000000809846F83C31
:100A10000000006051CC783B00000080831BF0395F
:100A20000000004020257A38000000802282E33652
:100A3000000000001DF369350C000020202020205C
:100A40002020202020202020202020203030303066
:100A50003030303030303030303030300000000056
:100A60000000000000000000000000000000000086
:100A70000000000000000000000000000000000076
:100A80000000000000000000000000000000000066
:100A90000000000000000000000000000000000056
:100AA0000000000000000000000000000000000046
:100AB0000000000000000000000000000000000036
:100AC00005000000190000007D000000000000008B
:100AD000000000000000F03F000000000000244083
:100AE00000000000000059400000000000408F405E
:100AF000000000000088C34000000000006AF840C9
:100B00000000000080842E4100000000D0126341EC
:100B10000000000084D797410000000065CDCD4162
:100B2000000000205FA00242000000E87648374243
:100B3000000000A2941A6D42000040E59C30A242E1
:100B40000000901EC4BCD64200003426F56B0C4356
:100B50000080E03779C3414300A0D88557347643FD
:100B600000C84E676DC1AB43003D9160E458E1435E
:100B7000408CB5781DAF154450EFE2D6E41A4B44D3
:100B800092D54D06CFF08044F64AE1C7022DB54418
:100B9000B49DD9794378EA440080E03779C3414372
:100BA000176E05B5B5B89346F5F93FE9034F384DD3
:100BB000321D30F94877825A3CBF737FDD4F15757F
:100BC000BC89D897B2D29C3C33A7A8D523F6493923
:100BD0003DA7F444FD0FA5329D978CCF08BA5B2545
:100BE000436FAC642806C80A202020202020202043
:100BF0002020202020202020303030303030303075
:100C0000303030303030303000000000500C000800
:100C1000C9F60208C9F60208C9F60208C9F60208B0
:100C2000C9F6020861BE0108B9BE01080000000053
:100C3000701D0008580C00080000000002000000B1
:100C4000F80C000802000000500C0008020400002C
:100C5000C01D0008700C000831395072696E745361
:100C6000657269616C526563656976657200000042
:100C7000313453657269616C52656365697665727A
:100C800000000000D81C0008900C0008300C000880
:100C90003955534253657269616C000000000000D1
:100CA00000000000840C000889BE01081DBF010877
:100CB00015BF01086DBE0108CDBE010809BF0108BE
:100CC000A1BE0108FDBE0108F1BE0108ADBE0108CC
:100CD000FCFFFFFF840C00080DBF0108A5BE010842
:100CE00001BF0108F5BE0108B1BE010881BE0108BF
:100CF000E9BE010800000000C01D0008200D00082A
:100D000000000000F80C0008C9F60208D1C0010874
:100D1000C9F60208C5C00108EDC0010800000000C6
:100D2000355072696E740000D81C0008340D00083C
:100D3000300C000831344861726477617265536524
:100D40007269616C0000000000000000280D0008BE
:100D5000A5C20108D1C00108A5C3010801C101084D
:100D600059C101081DC101083DC101084DC101085B
:100D7000F1C101087DC10108FCFFFFFF280D00083B
:100D800045C10108E9C101089DC2010835C101083A
:100D900051C1010815C1010875C10108000000001A
:100DA00025303258000000000D0A0000253034586C
:100DB00000000000253033642E253032640000002E
:100DC00043444320496E74657266616365000000A8
:100DD00043444320436F6E66696700003030303013
:100DE00030303030303031410000000053544D6914
:100DF00063726F656C656374726F6E696373000014
:100E000053544D3332205669727475616C20436FB0
:100E10006D506F727420284B61756169204C61625E
:100E20007329000000010100000070000000002490
:100E3000000000020003000000650054FFEF000006
:100E4000FA80000B12820001030C30C30E8C8CE977
:100E500014D5400213710F8E3883F8833000F88365
:100E6000258EF8833000F883FFFFFFFF0FFEA9D621
:100E7000240004001A8279A10000003CFFFF00005A
:100E80000010000038836FA2003E033040000000D5
:100E900002CAE3093E8000002000000000000000BC
:100EA0004000000060000000000C0000000C186E04
:100EB000000006920A16C0DFFFFF0256FD8CD377B2
:100EC000FFE1C496E0C5BEAA00000000FFFF0B2BA7
:100ED00000001657000003594000000000001DFAF2
:100EE00000026C1D000000003FFFDFEB003EB3B6C8
:100EF000000D227800002F3C00000000001942B5D0
:100F0000000039A20000B365D90E9FC91DCF4C3433
:100F100030000000500000003BB67AE8006400009A
:100F200000C8000000000000100000001000FA924D
:100F30001000225E000D229F000100000032000020
:100F4000FF46000063D400001000000004D600003B
:100F500004CC000004CC000000001072000000402F
:100F6000000000000000000000060002000500076D
:100F70000000000000640000000000000000000508
:100F800000050064002000000000000000000000D8
:100F9000000040000000030000000032F89800004C
:100FA000FF650000830F0000FF9BFC0000000000B5
:100FB0000000000000000000000000000000000031
:100FC0000000000000000000000000000000000021
:100FD00000000000000010004000000000000006BB
:100FE0000000B26A000200000001FB8300680000FC
:100FF00000D9FC007CF1FF830000000000650000C8
:10100000006403E8006400280000002500000000E0
:1010100016A000000000100000001000002F0000CB
:10102000000001F40000100000280000FFFF4581CF
:10103000FFFFFA72000000000000000000440005FD
:101040000005BAC6004778A20000000100000000B9
:1010500000000600000000140000254D002F706DF8
:10106000000005AE000C02D00000000000000000EF
:101070000000000000000000001B00000000000055
:1010800000000000000000000064000000080000F4
:101090000000000000000000000000000000000050
:1010A0000000000000000000000000000000000040
:1010B0000000000000000000000000000000000030
:1010C0000000000000000000000000000000000020
:1010D0000000000000000000000000000000000010
:1010E0000000000000000000001B000000000000E5
:1010F00000000000000E000E00000AC700040000FF
:1011000000000032FFFFFF9C00000B2B00000002DC
:101110000000000100000064FFE500000000000086
:1011200000000000000000000000000100000000BE
:1011300000010000000000000001800000018000AC
:1011400000018000002426D3000000000000000001
:10115000000600100096003C0000000000000000A7
:1011600000000000000000000C0A4E68CDCF770997
:1011700050166759C619CE8200000000000000001A
:10118000000000000000000000000000000000005F
:1011900017D78400030000000000000000000000DA
:1011A000C7938F9D1E1B1C1900000000000000004B
:1011B000000000000000000000000000000000002F
:1011C0000203188500004000000000030000000337
:1011D00000000000000000004000000000000000CF
:1011E00000000000000000000000000000000000FF
:1011F00000000000000000000000000000000000EF
:10120000000000000000000000000000677DDF7E9D
:1012100072902E554CF6E688000000000000000099
:101220000000000000000000D8DCB4B8B0D8B9ABB2
:10123000F3F8FAB3B7BB8E9EAEF132F51BF1B4B83A
:10124000B08097F1A9DFDFDFAADFDFDFF2AAC5CD2B
:10125000C7A90CC92C97F1A989264666B28999A914
:101260002D557DB0B08AA896365676F1BAA3B4B2A1
:1012700080C0B8A89711B28398BAA3F0240844108C
:101280006418B2B9B49883F1A329557DBAB5B1A356
:101290008393F0002850F5B2B6AA839328547CF1CA
:1012A000B9A3829361BAA2DADEDFDB819AB9AEF527
:1012B000606870F1DABAA2DFD9BAA2FAB9A3829251
:1012C000DB31BAA2D9BAA2F8DF85A4D0C1BBAD8305
:1012D000C2C5C7B8A2DFDFDFBAA0DFDFDFD8D8F131
:1012E000B8AAB38DB4980D355DB2B6BAAF8C961965
:1012F0008F9FA70E161EB49AB8AA872C547CBAA446
:10130000B08AB691325676B28494A4C808CDD8B8C3
:10131000B4B0F19982A82D557D98A80E161EA22C66
:10132000547C92A4F02C5078F184A898C4CDFCD8B9
:101330000DDBA8FC2DF3D9BAA6F8DABAA6DED8BA26
:10134000B2B68696A6D0F3C841DAA6C8F8D8B0B42B
:10135000B882A892F52C548898F135D9F418D8F1B0
:10136000A2D0F8F9A884D9C7DFF8F883C5DADF6915
:10137000DF83C1D8F40114F1A8824EA884F311D1FF
:1013800082F5D992289788F109F41C1CD884A8F317
:10139000C0F9D1D99782F129F40DD8F3F9F9D1D94F
:1013A00082F4C203D8DEDF1AD8F1A2FAF9A8849831
:1013B000D9C7DFF8F8F883C7DADF69DFF883C3D865
:1013C000F40114F198A8822EA884F311D182F5D9E2
:1013D00092509788F109F41CD884A8F3C0F8F9D189
:1013E000D99782F149F40DD8F3F9F9D1D982F4C42F
:1013F00003D8DEDFD8F1AD8898CCA809F9D982925C
:10140000A8F57CF1883ACF944A6E98DB6931DAAD61
:10141000F2DEF9D88795A8F221D1DAA5F9F417D927
:10142000F1AE8ED0C0C3AE82C684C3A88595C8A5D0
:1014300088F2C0F1F4010EF18E9EA8C63E56F55416
:10144000F18872F40115F19845856EF58E9E048839
:10145000F142985A8E9E068869F4011CF1981E117B
:1014600008D0F504F11E970202983625DBF9D985DC
:10147000A5F3C1DA85A5F3DFD88595A8F309DAA528
:10148000FAD88292A8F578F1881A849F2688982144
:10149000DAF41DF3D8879F39D1AFD9DFDFFBF9F438
:1014A0000CF3D8FAD0F8DAF9F9D0DFD9F9D8F40B7F
:1014B000D8F3879F39D1AFD9DFDFF41DF3D8FAFC19
:1014C000A869F9F9AFD0DADEFAD9F88F9FA8F1CC84
:1014D000F398DB45D9AFDFD0F8D8F18F9FA8CAF3D6
:1014E0008809DAAF8FCBF8D8F2AD978D0CD9A5DF8C
:1014F000F9BAA6F3FAF412F2D8950DD1D9BAA6F337
:10150000FADAA5F2C1BAA6F3DFD8F1BAB2B6869676
:10151000A6D0CAF349DAA6CBF8D8B0B4B8D8AD840F
:10152000F2C0DFF18FCBC3A8B2B68696C8C1CBC3D9
:10153000F3B0B48898A821DB718D9D71859521D970
:10154000ADF2FAD88597A828D9F408D8F28D29DA0F
:10155000F405D9F285A4C2F2D8A88D9401D1D9F4AA
:1015600011F2D88721D8F40AD8F28498A8C801D1FA
:10157000D9F411D8F3A4C8BBAFD0F2DEF8F8F8F86C
:10158000F8F8F8F8D8F1B8F6B5B9B08A95A3DE3C0A
:10159000A3D9F8D85CA3D9F8D87CA3D9F8D8F8F99E
:1015A000D1A5D9DFDAFAD8B18530F7D9DED8F8304D
:1015B000ADDADED8F2B48C99A32D557DA083DFDFA0
:1015C000DFB591A0F629D9FBD8A0FC29D9FAD8A07B
:1015D000D051D9F8D8FC51D9F9D879D9FBD8A0D0B5
:1015E000FC79D9FAD8A1F9F9F9F9F9A0DADFDFDF46
:1015F000D8A1F8F8F8F8F8ACDEF8ADDE8393AC2C9F
:10160000547CF1A8DFDFDFF69D2CDAA0DFD9FADB0E
:101610002DF8D8A850DAA0D0DED9D0F8F8F8DB55EC
:10162000F8D8A878DAA0D0DFD9D0FAF8F8F8F8DB43
:101630007DF8D89CA88CF530DB38D9D0DEDFA0D07F
:10164000DEDFD8A848DB58D9DFD0DEA0DFD0DED877
:10165000A868DB70D9DFDFA0DFDFD8F1A888902C85
:10166000547C98A8D05C38D1DAF2AE8CDFF9D8B0CF
:1016700087A8C1C1B188A8C6F9F9DA36D8A8F9DABD
:1016800036D8A8F9DA36D8A8F9DA36D8A8F9DA3689
:10169000D8F78D9DADF818DAF2AEDFD8F7ADFA3095
:1016A000D9A4DEF9D8F2AEDEFAF983A7D9C3C5C74B
:1016B000F1889BA77AADF7DEDFA4F8849408A7979A
:1016C000F300AEF29819A488C6A39488F632DFF22C
:1016D0008393DB09D9F2AADFD8D8AEF8F9D1DAF3CF
:1016E000A4DEA7F1889B7AD8F38494AE19F9DAAA1C
:1016F000F1DFD8A881C0C3C5C7A39283F628ADDEA9
:10170000D9F8D8A350ADD9F8D8A378ADD9F8D8F87E
:10171000F9D1A1DADEC3C5C7D8A18194F818F2B017
:1017200089ACC3C5C7F1D8B8B4B09786A8319B06B9
:101730009907AB9728889BF00C201440B0B4B8F000
:10174000A88A9A285078B79BA829517924705944BF
:101750006938644831F1BBAB88002C547CF0B38B02
:10176000B8A804285078F1B088B49726A85998BB37
:10177000ABB38B02264666B0B8F08A9CA829517993
:101780008B2951798A2470598B2058718A44693881
:101790008B3940688A6448318B30496088F1AC00ED
:1017A0002C547CF08CA804285078F1889726A859EE
:1017B00098AC8C02264666F0899CA8295179247041
:1017C00059446938644831A98809205970AB1138E7
:1017D0004069A8193148608CA83C415C207C00F12C
:1017E00087981986A86E767EA999882D557DD8B1DF
:1017F000B5B9A3DFDFDFAED0DFAAD0DEF2ABF8F9F8
:10180000D9B087C4AAF1DFDFBBAFDFDFB9D8B1F150
:10181000A3978E60DFB084F2C8F8F9D9DED893853B
:10182000F14AB183A308B5839A0810B79F10D8F185
:10183000B0BAAEB08AC2B2B68E9EF1FBD9F41DD852
:10184000F9D90CF1D8F8F8AD61D9AEFBD8F40CF1A8
:10185000D8F8F8AD19D9AEFBDFD8F416F1D8F8AD49
:101860008D61D9F4F4ACF59C9C8DDF2BBAB6AEFA41
:10187000F8F40BD8F1AED0F8AD51DAAEFAF8F1D8F1
:10188000B9B1B6A3839C08B9B1839AB5AAC0FD309B
:1018900083B79F10B58B93F20202D1ABDADED8F199
:1018A000B080BAABC0C3B284C1C3D8B1B9F38BA303
:1018B00091B609B4D9ABDEB0879CB9A3DDF1B38B87
:1018C0008B8B8B8BB087A3A3A3A3B28BB69BF2A306
:1018D000A3A3A3A3A3A3A3A3A3F1B087B59AA3F340
:1018E0009BA3A3DCBAACDFB9A3A3A3A3A3A3A3A325
:1018F000A3A3A3A3A3A3A3A3D8D8D8BBB3B7F1AA88
:10190000F9DAFFD9809AAA28B48098A720B79787D8
:10191000A86688F07951F1902C870CA78197629383
:10192000F071716085940129517990A5F1284C6C72
:10193000870C95188578A38390284C6C886CD8F315
:10194000A28200F210A8921980A2F2D926D8F188BA
:10195000A84DD948D896A83980D93CD89580A839BF
:10196000A68698D92CDA87A72CD8A8899519A9809A
:10197000D938D8A88939A980DA3CD8A82EA83990B6
:10198000D90CD8A8953198D90CD8A809D9FFD80175
:10199000DAFFD89539A9DA26FFD890A80D8999A839
:1019A00010809821DA2ED88999A83180DA2ED8A80B
:1019B00086963180DA2ED8A8873180DA2ED8A88290
:1019C00092F34180F1D92ED8A882F31980F1D92E53
:1019D000D882ACF3C0A28022F1A62EA72EA922980D
:1019E000A829DAACDEFFD8A2F22AF1A92E8292A8A9
:1019F000F23180A696F1D900AC8C9C0C30ACDED0D4
:101A0000DEFFD88C9CACD010ACDE8092A2F24C826F
:101A1000A8F1CAF235F19688A6D900D8F1FF0000E6
:101A20000CC92C004CCD6C00B8AAB38DB4980D3500
:101A30005D000000B8AAAAAAB088C3C5C70000000C
:101A400026466600FEF2ABC4AAF1DFDFBBAFDFDFE4
:101A500036567600830000000040000000030000BE
:101A60009001FA000000A041000070420000003F19
:101A70006666663ECDCC2C3F0000003F0000003F74
:101A80000A0000006800000480004101000000011D
:101A9000331300003C0A560A700A8B0AA60AC10AD0
:101AA000DD0AF80A150B310B4E0B6B0B880BA50BDF
:101AB000C30BE10B000C1E0C3D0C5D0C7C0C9C0C54
:101AC000BD0CDD0CFE0C1F0D410D630D850DA80D29
:101AD000CB0DEE0D120E360E5A0E7F0EA40ECA0E50
:101AE000EF0E160F3C0F630F8B0FB30FDB0F0310BE
:101AF0002C1056108010AA10D41000112B11571161
:101B00008311B011DE110B12391268129712C7122D
:101B1000F712271359138A13BC13EF132214551409
:101B20008914BE14F31429155F159515CD150416E7
:101B30003D167616AF16E91624175F179B17D817B0
:101B4000151852189118CF180F194F199019D1194B
:101B5000131A561A9A1ADE1A221B681BAE1BF51BA3
:101B60003D1C851CCE1C181D621DAD1DF91D461E99
:101B7000941EE21E311F811FD11F23207520C82013
:101B80001C217121C7211D227422CD2226238023EE
:101B9000DA2336249324F1244F25AF250F2671260E
:101BA000D32636279B2700286728CE283629A02948
:101BB0000B2A762AE32A512BC02B302CA12C132D73
:101BC000862DFB2D712EE82E602FD92F5330CF306C
:101BD0004C31CA314A32CA324C33D0335434DA34FD
:101BE0006235EA35743600378D371B38AA383C39F0
:101BF000CE39623AF83A8F3B273CC13C5D3DFA3D15
:101C0000983E383FDA3F7E402341CA4172421C432E
:101C1000C84376442545D64589463D47F447AC48F8
:101C20006649224ADF4A9F4B614C244DEA4DB14E32
:101C30007B4F46501451E351B55289535E5436558B
:101C40001156ED56CB57AC588F59745A5C5B465CB5
:101C5000325D215E125F0560FB60F361EE62EB6353
:101C6000EB64ED65F266FA670469116A206B336C08
:101C7000486D5F6E7A6F9770B871DB7201742A7568
:101C800056768577B778EC79247B5F7C9D7DDF7E07
:101C900024806C8175191A0C6A231B1C1D1E1F20C1
:101CA0007274433B4138393A696B6C376F77246DF6
:101CB0006E7025262728292A3463646749000000AE
:101CC00000000000010203040102030406070809E2
:101CD00000000000001D0008F1F0020805F10208F4
:101CE000E1F70208E5F702087DF70208E1F60208CD
:101CF00001F0020829F00208B9F002080000000013
:101D0000D81C00080C1D0008E81D00084E31305F8B
:101D10005F637878616269763132305F5F73695FE3
:101D2000636C6173735F747970655F696E666F452C
:101D300000000000D81C0008401D0008E81D000835
:101D40004E31305F5F637878616269763132315F3E
:101D50005F766D695F636C6173735F747970655FE3
:101D6000696E666F4500000000000000341D000829
:101D70005DF3020871F30208E1F70208E5F70208D3
:101D80007DF70208E1F60208FDF102088DF3020872
:101D900029F10208000000007075726520766972F2
:101DA0007475616C206D6574686F642063616C6C20
:101DB00065640A000000000000000000E81D000843
:101DC000A5F70208B9F70208E1F70208E5F70208EB
:101DD0007DF70208E1F6020825F7020841F702083C
:101DE00019F7020800000000D81C0008F41D0008C4
:101DF000181E00084E31305F5F6378786162697643
:101E00003131375F5F636C6173735F747970655FE5
:101E1000696E666F45000000C01D0008201E0008A6
:101E2000537439747970655F696E666F00000000E5
:101E300000000000181E0008D5F70208EDF70208A0
:101E4000E1F70208E5F702083DF80208E9F70208A1
:101E50007465726D696E6174652063616C6C656434
:101E6000207265637572736976656C790A0000008B
:101E70007465726D696E6174652063616C6C656414
:101E8000206166746572207468726F77696E67206E
:101E9000616E20696E7374616E6365206F662027C2
:101EA00000000000270A00007465726D696E61749D
:101EB000652063616C6C656420776974686F757404
:101EC00020616E2061637469766520657863657052
:101ED00074696F6E0A0000002020776861742829F9
:101EE0003A202000C01D0008901F000800000000DC
:101EF00000000000E41E000899030308DD03030846
:101F0000B103030800000000C01D0008A01F000866
:101F1000537431336261645F657863657074696FAF
:101F20006E0000004E31305F5F63787861626976E1
:101F30003131395F5F666F726569676E5F657863BF
:101F4000657074696F6E45007374643A3A657863BE
:101F5000657074696F6E00007374643A3A6261640C
:101F60005F657863657074696F6E0000C01D00085E
:101F7000241F00080000000000000000C01F00082F
:101F8000A5030308C9030308BD03030800000000FC
:101F9000537439657863657074696F6E0000000072
:101FA0004E31305F5F637878616269763131355FD9
:101FB0005F666F726365645F756E77696E64450016
:101FC000D81C0008101F0008E41E00085F474C4F93
:101FD00042414C5F0000000028616E6F6E796D6FAA
:101FE0007573206E616D6573706163652900000013
:101FF000737472696E67206C69746572616C00003D
:102000007374640073740000636C000064740000F7
:10201000707400004A417272617900005B5D0000DB
:10202000636F6E737472756374696F6E207674611A
:10203000626C6520666F7220000000007479706524
:10204000696E666F206E616D6520666F722000009C
:102050006E6F6E2D7669727475616C207468756E22
:102060006B20746F20000000636F76617269616E8F
:10207000742072657475726E207468756E6B20744E
:102080006F20000067756172642076617269616219
:102090006C6520666F7220007265666572656E639E
:1020A000652074656D706F7261727920666F722041
:1020B0000000000069780000203A2000756C0000E4
:1020C0006C6C0000756C6C0066616C7365000000E0
:1020D0007472756500000000256C64002E2E2E00C1
:1020E000676C6F62616C20636F6E7374727563747A
:1020F0006F7273206B6579656420746F2000000037
:10210000676C6F62616C2064657374727563746F61
:102110007273206B6579656420746F200000000085
:102120007369676E6564206368617200626F6F6CCB
:1021300000000000626F6F6C65616E006368617221
:10214000000000006279746500000000646F756231
:102150006C6500006C6F6E6720646F75626C650063
:10216000666C6F61740000005F5F666C6F61743154
:1021700032380000756E7369676E6564206368614C
:1021800072000000696E7400756E7369676E656435
:1021900020696E7400000000756E7369676E656477
:1021A000000000006C6F6E6700000000756E7369C0
:1021B000676E6564206C6F6E670000005F5F696E1C
:1021C0007431323800000000756E7369676E6564A3
:1021D000205F5F696E7431323800000073686F727F
:1021E00074000000756E7369676E65642073686FB4
:1021F00072740000766F69640000000077636861A4
:10220000725F74006C6F6E67206C6F6E6700000009
:10221000756E7369676E6564206C6F6E67206C6F96
:102220006E670000646563696D616C3332000000A5
:10223000646563696D616C363400000064656369D0
:102240006D616C313238000068616C66000000001E
:102250006368617231365F74000000006368617208
:1022600033325F74000000007374643A3A616C6C3E
:102270006F6361746F720000616C6C6F6361746F87
:10228000720000007374643A3A62617369635F7349
:102290007472696E6700000062617369635F7374D2
:1022A00072696E67000000007374643A3A73747266
:1022B000696E67007374643A3A62617369635F734D
:1022C0007472696E673C636861722C207374643A3F
:1022D0003A636861725F7472616974733C636861C8
:1022E000723E2C207374643A3A616C6C6F63617453
:1022F0006F723C636861723E203E00007374643A02
:102300003A6973747265616D000000007374643A19
:102310003A62617369635F6973747265616D3C638E
:102320006861722C207374643A3A636861725F74F6
:1023300072616974733C636861723E203E00000004
:1023400062617369635F6973747265616D00000037
:102350007374643A3A6F73747265616D00000000C3
:102360007374643A3A62617369635F6F7374726520
:10237000616D3C636861722C207374643A3A6368DF
:1023800061725F7472616974733C636861723E204C
:102390003E00000062617369635F6F737472656110
:1023A0006D0000007374643A3A696F73747265610A
:1023B0006D0000007374643A3A62617369635F6927
:1023C0006F73747265616D3C636861722C20737405
:1023D000643A3A636861725F7472616974733C63F2
:1023E0006861723E203E000062617369635F696FDD
:1023F00073747265616D0000614E0000263D00003F
:10240000615300003D0000006161000026260000CD
:102410006164000026000000616E000028290000B1
:10242000636D00002C000000636F00007E00000060
:10243000645600002F3D00006461000064656C6517
:1024400074655B5D00000000646500002A00000008
:10245000646C000064656C65746500002E0000000B
:10246000647600002F000000654F00005E3D000014
:10247000656F00005E000000657100003D3D0000DA
:10248000676500003E3D0000677400006C5300006B
:102490003C3C3D003C3D00006C7300003C3C0000B7
:1024A0006C7400003C0000006D4900002D3D0000F0
:1024B0006D4C00002A3D00006D6900002D000000F9
:1024C0006D6C00006D6D00002D2D00006E61000030
:1024D0006E65775B5D0000006E650000213D0000C9
:1024E0006E740000210000006E7700006E657700BA
:1024F0006F5200007C3D00006F6F00007C7C00008C
:102500007C000000704C00002B3D0000706C00004F
:102510002B000000706D00002D3E2A00707000003E
:102520002B2B0000707300002D3E00007175000021
:102530003F000000724D0000253D00007253000076
:102540003E3E3D00726D00002500000072730000E9
:102550003E3E000073697A656F662000737A000062
:1025600061740000616C69676E6F66200000000096
:10257000617A000073717274000000004300000073
:10258000494E4600696E66004E414E006E616E0017
:102590003031323334353637383941424344454699
:1025A000000000003031323334353637383961625B
:1025B0006364656600000000286E756C6C2900007D
:1025C00030000000496E66696E6974790000000091
:1025D0004E614E00504F534958000000F8B500BFFF
:1025E000F8BC08BC9E467047F8B500BFF8BC08BCF4
:1025F0009E46704708B10181B0B000840000000021
:1026000008B10181B0B000840000000008B1018170
:10261000B0B000840000000008B10181B0B00084B7
:1026200000000000B1D502008408B101B0B0B000D4
:10263000FF0019010C020608010C0410051E0A0017
:102640000001007F00007D0000000000000000008D
:1026500008B10181B0B000840000000008B1018120
:10266000B0B00084000000006DD50200B0AF0400DF
:10267000FF001D01142404E201012A047001B201CB
:102680006C9E0200A6020400000100000000000091
:1026900045D50200B0AF1400FF001901113E8804B7
:1026A0000000F00404E40701F604A40200000100A5
:1026B0000000000021D50200A908B100FF001101AF
:1026C0000A7A048C010192010800007F00000000DA
:1026D0000000000001D50200B0AA0100FF00350192
:1026E0002538440000800104D201038A011800004B
:1026F000AE0104D20103CA013C0000A20218C002CC
:1027000000C4020400000200017D0000000000007F
:10271000D4F7FFFFA4B20181B0B0AF010000000008
:1027200008B10181B0B000840000000008B101814F
:10273000B0B000840000000008B10181B0B0008496
:042740000000000095
:10274400E4180100010000005C190100B0A9028036
:10275400241A0100B0B0A880841A0100B4FFFF7FDE
:10276400701B0100B0B0AA80981B0100010000009A
:102774002C1C0100B0AF0A80701F01000100000092
:10278400741F0100AE3F27805423010001000000A4
:1027940050230100AB10B280B823010001000000F7
:1027A400C4230100A908B180F8230100010000003E
:1027B4000C24010068FFFF7F14240100AB26B280C3
:1027C4009C2401000100000074260100B0A80380CD
:1027D400882601000100000084260100B0AE0380B9
:1027E4008C290100B0A90480B02901003CFFFF7FBF
:1027F400B429010040FFFF7FC0290100010000004F
:102804007C960100B0B0B0807C9601000084028008
:102814008C9601000100000088960100B0B0B080E1
:10282400889601000100000084960100B0B0B080D9
:102834008496010001000000AC960100B0B0B080A5
:10284400AC96010001000000A8960100B0B0B08071
:10285400A896010001000000A4960100B0B0B08069
:10286400A496010001000000A0960100B0B0B08061
:10287400A096010001000000A0960100A908B18003
:10288400B496010001000000D896010064FDFF7FAA
:10289400849701000100000034980100A908B18068
:1028A400489801000100000068980100B0B0B080B1
:1028B400689801000100000078980100B0B0B08071
:1028C400789801000100000078980100B0B0B08051
:1028D400789801000100000074980100B0B0B08045
:1028E400749801000100000088980100B0B0B08025
:1028F4008898010001000000EC980100B0B0B0809D
:10290400EC980100A908B18090990100B0B0B080A2
:1029140090990100B0AC0180889A0100B0B0AC80FD
:10292400B09B0100B0B0AA80809C0100A908B180CE
:102934002C9D0100B0B0A880C89D010001000000DA
:1029440060A00100B0B0A880F0A00100A908B18087
:1029540040A10100B0AA0D8030A20100B0B0AA804D
:10296400F0A20100AF3F328068DD0100B0AE098003
:10297400D8E10100010000001CE20100B0B0AC800D
:10298400B4E3010001000000C8E30100A908B1801C
:10299400E8E40100B0B0AC80B0E601000100000042
:1029A400D8040200B0A8038028050200B0B0A880B3
:1029B4002C05020048FCFF7F3805020001000000DE
:1029C40048050200B0A90280C4050200010000000D
:1029D40038070200B0AB06807C080200B0B0A880C3
:1029E40094080200B0AF1880640C0200B0AB0680FB
:1029F400EC0C0200B0A90280480D0200B0A80380CC
:102A0400940D020001000000AC0E0200B0AC038083
:102A1400100F0200B0AF22805C1F0200B0AB048034
:102A2400C41F0200B0A90480E41F0200B0B0A88053
:102A34002C200200D4FBFF7F402002000100000094
:102A4400184F0200B0AF0880885002000100000057
:102A5400ACC50200AB08B180CCC50200B0AF0680A3
:102A640054C60200B0AA038084C60200B0B0A88095
:102A7400ACC6020001000000ACC60200B0AF028088
:102A840078C70200B0AF0880D0C80200B0B0A880F8
:102A9400F8C80200B0AF108020CC02000100000092
:102AA40024CC020070FBFF7F34CC0200B0AA038068
:102AB40064CC02000100000068CC0200A908B180C7
:102AC4007CCC0200B0AB0280B0CC0200AB08B18079
:102AD400D0CC0200B0B0A880F8CC02000100000005
:102AE4005CCD02003CFBFF7F7CCD020001000000B6
:102AF40084CD020058FBFF7F84CD02005CFBFF7F86
:102B040090CD020001000000D8CD020058FBFF7FE9
:102B140000CF02000100000034CF0200B0AC0380FB
:102B2400D8CF0200B0B0A8801CD00200AB08B1809E
:102B3400A0D0020058FBFF7F84D40200B0B0A8806C
:102B4400C8D40200AB08B18040D50200B0B0A88060
:102B5400B0D5020001000000C0D5020054FBFF7F85
:102B640054D6020001000000E4D6020064FBFF7F9B
:102B740024D802000100000090D80200B0AC01800B
:082B840058D902000100000015
:1080000040F2C073C2F200031A780AB90120187056
:10801000704700BF40F2C070C2F2000008B50368AC
:108020002BB140F20003C0F2000303B1984708BD32
:108030001EB428F08BFA1EBC0CF0A0FE70B44C1ECF
:10804000402C28D8DFE804F03A3A3A3A2727272785
:1080500036363A36363636363636363636272323F1
:10806000232323233A3636363636273623213A273A
:108070003A23232727363A3A3A3A3A3A3A3A363ABC
:1080800027273636362727273600002B25D0446988
:108090008569AC4202DB002070BC704704EB4406EB
:1080A000056901344461B40028191EBF4260295596
:1080B0008360F1E7002AEAD11046EDE7D2F101042E
:1080C00038BF0024002B08BF44F00104002CE2D18B
:1080D00044698569AC42DEDAE0E71846DCE700BFB8
:1080E00030B443698469A34211DA046903EB4305A0
:1080F0000133436114EB850014BF002301230029E1
:1081000008BF43F0010353B962B9104608E00123E8
:108110000020002908BF43F00103002BF4D0002009
:1081200030BC7047037041608260F9E7F8B51646CD
:10813000C26804460D46137813E04B2B34D1E76038
:10814000236B002E0CBF19211C219A1D22630022D3
:1081500020461346FFF772FF286020B3E268051D32
:108160001378A3F17200A3F15607414241EB0001DD
:10817000D7F1000C4CEB070050EA010702F10107B0
:10818000DBD00132E26089B1236B0022002E0CBFEC
:1081900017211A212046093323631346FFF74EFFA8
:1081A00028600028DAD105462846F8BD0028C7D047
:1081B000206B002E0CBF18211B2109302063C6E75D
:1081C000C26803462DE9F0011078532803D000203F
:1081D000BDE8F0017047501CD8605278002A68D181
:1081E0009868C0F3C00080F0010C00290CBF002487
:1081F0000CF001043CB1DC6821784339C8B2012895
:108200008CBF00200120742A00F0A08040F2881169
:10821000C0F6000191F81CC0944500F0958091F8DB
:108220003840944200F0998091F854C0944500F091
:10823000928091F87040944200F0968091F88CC042
:10824000944500F08F8091F8A8409442BFD1A831A6
:108250004E69002E00F083805A699C69D1F818801D
:10826000A2426EDA02EB4207D3F810C001325A6123
:10827000BF001CEB070505D06E601626C5F8088008
:108280000CF80760DD62002858D0CD680969186BCA
:108290009442084418639ADD02EB42001C690132E3
:1082A0005A618300E01893D016224560E254816041
:1082B0008EE7A2F15F0CA2F13004DCF1000545EB82
:1082C0000C055FFA84FC0130D860BCF1090F8CBF4B
:1082D000284645F00100002848D05F2A2CD0002114
:1082E00001EBC10CE4B2A2F14106092C02EB8C00B7
:1082F0000246F6B2A0F1300004D9192EA2F13700DF
:108300003FF665AF814201463FF661AFDA68541C23
:10831000127812B15F2ADC6002D0A2F13004DFE7EC
:108320000130196A8842BFF452AFD9699A6A51F88C
:10833000200001329A624BE70020F2E74D6889681D
:10834000A5E70025DD629EE71C3181E740F2881138
:10835000C0F600017CE754317AE7383178E75A6992
:108360009C6990E78C3173E7703171E7A2F14105A8
:10837000EDB2192D3FF634AF0146B1E738B50C46E2
:108380000546002973D02378412B22D8DFE803F07B
:1083900058212121212C5827272121212121212148
:1083A0002121212121215821212121212121212186
:1083B0002121215821212121212121215827212139
:1083C0002121212121212121215821212121212166
:1083D000215861682846FFF7D1FF00283AD1A468E8
:1083E000002CD0D1204638BDD5F8140100283AD051
:1083F0004068626883682BB393F800C0BCF12B0F10
:108400001ED1002A35DD9B68013A02F00100CBB194
:1084100093F800C0BCF12B0F12D1E2B120B19B68E0
:10842000013A53B90EE0B2B19B68013A53B11978E1
:10843000013A2B2904D19B6823B118782B28F2D05C
:10844000002038BD0121002A0CBF0A4641F001027C
:108450000AB1002038BD58680028FBD003782B2BC8
:1084600018BF002038BD0121C5F81C1138BD0846D1
:1084700038BD0021E7E700BFF0B50746506883B07C
:1084800096681446431C0D465B18B3420DD9D2685A
:10849000002A1ED003B0F0BD0226206831460EF03F
:1084A00023FB034600B32060A660E668002EF1D1EE
:1084B00020682A4663683946C0180EF019F9226808
:1084C000616802EB050C0CF8016060684519656095
:1084D000E0E716B9022BDFD902267600B342DCD9D9
:1084E0007600B342F9D8D8E7206801930DF0C2FDB9
:1084F000019B0121E16023606360A360CAE700BFC4
:10850000026830B4044613786E2B1BD00025A3F10B
:108510003000C2B2092A1AD8216800204A1C00EB98
:10852000800C226003EB4C0012F8013B3038A3F1C1
:1085300030015FFA81FCBCF1090FF0D905B140426E
:1085400030BC7047531C012503605378DFE70020DF
:10855000F4E700BF38B5044621B9C368197839B1CA
:108560000133C360682914D0762903D0002038BDB8
:10857000084638BD04F10C052846FFF7C1FFE36843
:108580001A785F2AF2D1591C2846E160FFF7B8FF3C
:1085900003E004F10C00FFF7B3FFE36818785F28ED
:1085A00001D0002038BD01330120E36038BD00BF99
:1085B000C26810B5044613785F2B04D06E2B06D129
:1085C0004FF0FF3010BD00200132E26010BD0C30D2
:1085D000FFF796FFE26813785F2B02D04FF0FF3071
:1085E00010BD0130F0E700BFC36810B504461A782B
:1085F000542A01D0002010BD0133C360FFF7D8FF1B
:10860000031EF7DBA06A6269A1690130A0628A4299
:1086100001DB002010BD02EB4200216901326261E2
:1086200082008818F6D0436005238B5410BD00BF2C
:1086300008B5C3681A785F2A01D0012008BD01334C
:1086400040F80C3FFFF75CFFC043C00F08BD00BF00
:1086500070B504460C30FFF753FF051E34DDE668A5
:108660006068831B9D422CDCA2687319E36012F0E2
:10867000040F04D0715D242901D10133E360092D79
:1086800018DD41F6CC713046C0F6000108220DF02D
:10869000FDFF78B9337A06F10801A3F12E0EDEF161
:1086A000000C4CEB0E005F2B08BF40F0010068B9D6
:1086B000242B0BD0204631462A46FFF711FDE062FD
:1086C00070BD0020E06270BD002070BD4A784E2A67
:1086D000F0D1236B41F6D8712046C0F60001163365
:1086E00015225D1B2563FFF7FBFCEBE7C268F0B5C5
:1086F0000446137883B0A3F1720CDCF1000040EB68
:108700000C01562B08BF41F00101002952D14B2B1F
:1087100050D0A3F130054A2D6AD8DFE815F0750076
:1087200075007500750075007500750075007500A1
:1087300075006900690069006900690069006900E5
:10874000D4016900AF013D016900BD012F0169003D
:1087500069006900690069000502750021011301C3
:1087600069000501E000BD00AB0069006900690017
:1087700069007500690069006900690069006900A5
:108780009500950095009500950095009500950041
:108790009500950069009500950095009500690089
:1087A0006900690095009500870095009500950087
:1087B00095009500204601A90022FFF7B7FC054669
:1087C000C0B9284603B0F0BD204601F001FA3B21B4
:1087D000002302462046FFF731FC054601900028A1
:1087E000EFD0E26813781BB1501C452BE060E8D055
:1087F0000025E6E72046FFF779FF286005460028B8
:10880000DFD0019D3DB9DCE7204600F05BFD054669
:108810000190002DD5D0236A626A9342E8DAE169BB
:10882000581C41F82350019D2062CAE7551C204680
:10883000E560FFF70DFF2421002302462046FFF7E5
:10884000FDFB05460190E4E7B64903EB830311EB1A
:10885000830300F0A1826169A0698142C0F2718244
:1088600000231D465B685868511C236BE1601A1891
:108870002263A6E7511C2046E160FFF7E9FE019064
:108880002046FFF733FF1D21019B02462046FFF7DC
:10889000D5FB05460190BCE72046FFF7A5FEE3683F
:1088A0000190054693F800C0BCF1490FB1D10028F2
:1088B00087D0236A606A83429ADAE16920465A1CAB
:1088C00041F82350019D226200F0A4FC2A460421B5
:1088D00003462046FFF7B2FB0546019099E753781F
:1088E000A3F15F01A3F130004A4242EB010C5FFAB1
:1088F00080FEBEF1090F8CBF65464CF0010525B91D
:10890000413BDBB2192B00F22F8200212046FFF7FA
:1089100057FCE2680190054692F800C0BCF1490F8F
:108920007FF44FAF2046CFE7531C2046E360FFF7AC
:10893000DDFE1F21002302462046FFF77FFB054690
:10894000019066E7511C2046E160FFF7CFFE1E2133
:10895000002302462046FFF771FB0546019058E7C9
:10896000551C2046E560FFF7C1FE2021002302468A
:108970002046FFF763FB054601904AE7551C204659
:10898000E560FFF7B3FE2221002302462046FFF7F1
:1089900055FB054601903CE7531CE3605578002DDC
:1089A0003FF40FAF463D5A1CE260302D3FF620AF3A
:1089B00001A151F825F000BF8B8C0008F187000859
:1089C000F1870008F1870008F1870008F1870008A7
:1089D000F1870008F1870008F1870008F187000897
:1089E000F1870008F1870008F1870008F187000887
:1089F000C9870008F1870008F1870008F18700089F
:108A0000F1870008F1870008F1870008F187000866
:108A1000F1870008F1870008F1870008F187000856
:108A2000F1870008F1870008F1870008F187000846
:108A3000658C00083D8C0008178D0008F187000840
:108A4000F38C0008158C0008F1870008F1870008F6
:108A5000F1870008F1870008F1870008F187000816
:108A6000FF8B0008F1870008F1870008CF8B000812
:108A7000C9870008F1870008758B0008013220467D
:108A8000E260FFF733FE2121002302462046FFF774
:108A9000D5FA05460190BCE6531CE36092F801E06C
:108AA000BEF1590F00F07D810121204600F0FAF956
:108AB000E36893F800C0BCF1450F054600F03D8126
:108AC00000250195A5E6511CE16053785F2B00F06D
:108AD0007B81303BDBB2092B00F25581931CE360B4
:108AE0001A4613F8010B3038C5B2092DF7D92046C4
:108AF000521AFFF7F5FA05460028E2D0E16891F82E
:108B000000E0BEF15F0FDBD101312046E160FFF7ED
:108B1000EDFD2A46262103462046FFF78FFA05463B
:108B2000019576E6B8FAFF07561C2046E6606D46CA
:108B3000FFF7DCFD6946012206462046FFF7F6FAFC
:108B4000074610B90546019563E62046FFF7CEFDBE
:108B500038600028F6D0AF4203D00278252A40F0D2
:108B60003581204627213246009BFFF767FA0546EC
:108B700001954EE65B785F2B00F01C816169A0696E
:108B80008142BFF635AE01EB4105226901316161D9
:108B9000AB00D5183FF415AE3A2104F10C00D154C6
:108BA000FFF7AEFC6860E36893F800E0BEF15F0F8A
:108BB0007FF41EAE01332046E360FFF797FD2A469F
:108BC000292103462046FFF739FA0546F9E563698E
:108BD000A1698B4280F2C48003EB43052169013314
:108BE0006361AB00CD1800F00081814A2320C85496
:108BF00013466A60226B5B68D1182163E1E5204669
:108C0000FFF774FD4121002302462046FFF716FAC4
:108C10000546D6E56369A1698B4280F2A18003EB2A
:108C2000430521695A1C6261AB00CD1800F0DD805C
:108C3000704A2320C85413466A60DBE76369A16960
:108C40008B4280F28D8003EB430521690133636120
:108C5000AB00CD1800F0C980674A2320C8541346E2
:108C60006A60C7E76369A1698B4279DA03EB430560
:108C7000216901336361AB00CD1800F0B6805F4A13
:108C80002320C85413466A60B4E76269A569AA4202
:108C900080F2858002EB420C2069511C616100EB7F
:108CA0008C050195282028705A78303AD3B2092BC8
:108CB0008CBF002301232B81002B75D12046FFF7A9
:108CC00015FD6860019D6D68002D3FF47AAD04F1DB
:108CD0000C00FFF715FCE26813783BB1A3F1730CAD
:108CE000511CDCF1000EE1604EEB0C03019D6B8129
:108CF00067E56369A1698B4232DA03EB43052169B9
:108D000001336361AB00CD186FD03D4A2320C854B6
:108D100013466A606EE76369A269934220DA03EB47
:108D20004305216901336361AB00CD185DD0354A3D
:108D30002320C85413466A605CE7581C0195E06024
:108D400067E501EB4105206901316161A900451822
:108D500008BF6B683FF487AD23266B60465482E5FD
:108D600000231D465B6845E7204600F0ABFA054648
:108D7000019000283FF425AD90F800E0BEF1160FF9
:108D80007FF449AD1DE5204600F022FF054600288E
:108D90007FF4B4AE01953CE55B68002563E50025F2
:108DA0007FE75A1CE2607FE604F10C00FFF7A8FBA6
:108DB000019D83E701322046E26000F009FF05468D
:108DC00000287FF4F0AEFCE400259DE6009D002D18
:108DD0003FF477AE236A606A8342BFF671AEE16901
:108DE0005A1C41F823502262BBE66B6802E700BFC1
:108DF000A4040008B80400087C0400086804000803
:108E0000900400085404000870B5044682B00020A5
:108E1000E268019092F800C0ACF145014B4243EB8F
:108E20000102844514BF134642F001030BBB01AE9F
:108E300014E0FFF703F93060D8B1E36800F10806E9
:108E400093F800E0DEF1010C38BF4FF0000CBEF1EA
:108E5000450F14BF60464CF0010060B92046FFF793
:108E600045FC2A210023054620462A46002DE0D154
:108E7000284602B070BD01980028FAD08368002B04
:108E8000F7D1426811782329F3D1526892F810E0A3
:108E9000BEF1090FEDD1216B52688A1A226343603B
:108EA000E7E700BFC26870B5044613784A2B0DD0BF
:108EB0000D4669B92046FFF7A7FF034678B1204663
:108EC00025212A46BDE87040FFF7B8B80132C260DC
:108ED0002046FFF70BFC05460028EBD170BD70BDA6
:108EE000C3682DE9F04704461F78B8467FB15A1C85
:108EF000C26093F80180B8F1000F01D0991CC160E5
:108F0000762F29D1A8F13005EBB2092B3DD940F2DB
:108F1000881C3425C0F6000C00230CF55179E91AA1
:108F200001EBD17003EB600002010CEB02064A4436
:108F3000D6F844130E78B7420AD1497888453BD019
:108F4000414507D8431CAB42E9D10020BDE8F0877A
:108F5000BE42F7D90546F6E7A7F16301D1F1000C4F
:108F60004CEB0102B8F1760F14BF002202F00102AF
:108F7000002ACCD02046FFF7B9FB2E210023024661
:108F80002046BDE8F047FFF759B82046FFF760FBE1
:108F900063690146A0698342D7DA03EB4300226983
:108FA000013363618300D01818D0C9B12D24456006
:108FB000D4548160BDE8F0876369A06983420CDA0C
:108FC00003EB43002169013363618300C81805D0B6
:108FD00042602C22CA54BDE8F0870020BDE8F0872B
:108FE0000846BDE8F08700BFC2682DE9F04104469D
:108FF0001378A3F1300C5FFA8CF109291BD9A3F186
:10900000610C5FFA8CF119290DD9A3F143015FFAC4
:1090100081FCBCF1010F23D94C2B10D0552B54D01F
:109020000020BDE8F081FFF75BFF10B103782C2B27
:109030000ED0BDE8F081BDE8F041FFF709BB551C3B
:10904000C560FFF705FB054600286AD1BDE8F08141
:109050004168226B8B68D118CA1D2263BDE8F0817C
:10906000C16A21B10878002829D0162827D0432BBF
:1090700033D0442BD4D15378312B65D0322B65D0EB
:10908000302BCDD1012563690232A069E2608342B1
:1090900053DA206903EB430C0133636110EB8C005E
:1090A00014BF00230123002908BF43F00103002B54
:1090B000B6D10822057102708160BDE8F0818B682D
:1090C000206BC01820631378D1E75378511C6C2BA8
:1090D00067D0742B3CD00020ABE75378322B31D0D3
:1090E000332B2DD0312B9BD1012563690232A0692E
:1090F000E26083421EDA206903EB430C01336361B3
:1091000010EB8C0014BF00230123002908BF43F09B
:109110000103002B84D10722057102708160BDE834
:10912000F0812046FFF784FA002814BF284600206B
:10913000BDE8F08101230020E7E701230020B2E72A
:109140000325D2E70225D0E702259CE703259AE70D
:10915000C1605378742B7FF463AF4E1CC660FFF779
:1091600027FA061EFFF65CAF6369A1698B42BFF662
:1091700057AF0C205A1C626100FB03F2216988186A
:109180003FF457AF236A4027656A8F54AB4246606D
:10919000BFF646AFE1695A1C41F823002262BDE8E0
:1091A000F081C16092F801C0BCF16C0F7FF438AF60
:1091B0004E1CC660FFF728FE064600283FF446AF67
:1091C000E36893F800E0BEF1450F7FF429AF5F1C20
:1091D0002046E760FFF7ECF9071EFFF621AF636951
:1091E000A1698B42BFF61CAF0C205A1C626100FBC8
:1091F00003F2216988183FF41CAF236A4FF03E0C3C
:10920000656A01F802C0AB4246608760BFF608AFEE
:10921000C0E700BFC26870B50446137882B0C66A62
:10922000492B02D0002002B070BD531CC36051789E
:10923000452909D1002201332B21C360134602B016
:10924000BDE87040FEF7FABE002202AD4C2945F899
:10925000042D19D0582921D049291AD02046FFF7CA
:1092600045FA0246002A2BD020462B210023FEF788
:10927000E5FE28600028D6D0E368197845291AD081
:109280004C2900F10805E5D1204600F03DFC0246DE
:10929000E8E72046FFF7BEFF0246E3E7013320463A
:1092A000E36000F095FCE368197845290246B9D1DE
:1092B000581CE060D6E75A1CE662E2600198B2E70B
:1092C0001046B0E7C368F0B504461A7883B04C3A4C
:1092D0000E2A2ED8DFE802F0272D432D2D2D2D0844
:1092E0002D272D2D2D2D910093F801E0BEF1740F47
:1092F00000F08F800021FEF763FF01220646E3683D
:1093000093F800C0BCF1490F10D1002A00F09A80F8
:109310002046FFF77FFF3246042103462046FEF732
:109320008DFE064602E0FFF75FFE0646304603B0BC
:10933000F0BDFFF759FEE36893F800C0BCF1490F98
:109340000646F3D10028F1D0236A616A8B425EDAC7
:10935000E1695A1C204641F823602262D9E70133B3
:1093600001A9C3600122FEF7E1FE06460028DDD018
:10937000E36800271D78002D3BD0A5F1300EA5F144
:10938000610C5FFA8EF05FFA8CF109288CBF002027
:109390000120192998BF40F00100002840F0968074
:1093A000A5F14301484240EB0102442D08BF42F0C1
:1093B0000102002A40F08A80A5F1550CDCF1000E74
:1093C0004EEB0C024C2D08BF42F00102002A7DD169
:1093D000532D00F0A780492D00F0AF80542D00F0F0
:1093E000A780452D00F0B4804D2D02D1002F40F014
:1093F000928000203060064698E75D1C0021C56021
:1094000000F0CEF8E3681A78452A054627D00026F2
:109410008CE742F200019D1C0322C0F60001C560EA
:10942000FEF75EFE05462046FFF7DEFD01212A46D7
:1094300003462046FEF702FE00220646206BC11CB2
:1094400021635CE7002E3FF471AF236A616A8B42AF
:109450005FDAE0695A1C40F82360226258E7591C21
:10946000E1605A78732A00F08980642A18BF4FF0AF
:10947000FF3679D02046FFF725FF074650B1037825
:109480003E2B07D0402B05D02046FFF7D1F800280F
:109490003FF44BAFB6F1FF3F08BF3B460FD06369C7
:1094A000A069834252DA03EB43022169013363610D
:1094B00092008B1803D09E603F265F608E5420463A
:1094C00002212A46FEF7BAFD06462FE72046FFF79F
:1094D0008BFD0346DFB101213A462046FEF7AEFD83
:1094E0000746532D1BD0E3681D78452D3FF445AF4B
:1094F000002F3FF47EAF226A606A8242BFF679AFE6
:10950000E169551C41F8227025621D7833E71F463A
:10951000E7E716460AE70133E3601D782BE7E368C7
:109520001D7828E720460121FEF74AFE0346D1E7D1
:109530002046FFF759F80346CCE7002F3FF459AF18
:109540002046FFF767FE04210346C5E70023B6E780
:1095500037603E46002F3FF4E9AE1E78452ED8D145
:109560000133019EE360E1E64E1C2046E660FFF712
:109570001FF8061EBFF67EAF0026D7E60131204653
:10958000E160FFF755F800283FF4CFAE41F6F071E7
:109590000E22C0F600012046FEF7A2FD03468EE72C
:1095A000C2682DE9F0470E4611780446A1F1470C38
:1095B000DCF1000343EB0C05542914BF2B4645F0A6
:1095C0000103002B4FD1FFF77DFE003E18BF01269F
:1095D00000280CBF002606F001060546002E21D10A
:1095E000E3681B78D3F1010138BF0021002D08BFCB
:1095F00041F00101002933D1452B31D02B461A7897
:10960000042A00F0D180A2F11A0238D200212046AB
:10961000FFF748FC03212A4603462046BDE8F047F1
:10962000FEF70CBDA36813F0010FD9D10378A3F1A5
:109630001A0C5FFA8CFEBEF1020F06D86D682B780B
:10964000A3F11A01C8B20228F8D9022B08D1AB68DD
:1096500000E05B6818781A38C2B2022AF9D9AB6008
:109660002846BDE8F087016B143101631378542B51
:1096700025D0472B0AD000252846BDE8F087022ACE
:10968000C4D85B68002BBAD11946C0E7511CC16031
:109690005578002DE4D00232522DC26000F08A814C
:1096A00000F29281412DE6D10021FFF779FF1521CB
:1096B000002302462046BDE8F047FEF7BFBC531C1E
:1096C000C3605578002DCBD0433D5A1CC260332D6A
:1096D000D1D801A353F825F05F99000877960008C8
:1096E000779600084B99000877960008779600084F
:1096F00037990008239900087796000877960008A4
:109700007796000877960008779600087796000805
:1097100077960008779600080F990008F7980008D8
:1097200077960008DF98000877960008779600087B
:1097300077960008779600087796000877960008D5
:1097400077960008779600087796000877960008C5
:109750007796000877960008B19800087796000879
:109760007796000877960008779600088F9800088B
:109770007796000877960008779600087796000895
:109780007796000877960008779600087796000885
:109790007796000877960008779600087796000875
:1097A000779600087F9800085B68002B65D01878D2
:1097B000421E2D2A61D801A151F822F075980008A7
:1097C000759800087B9800087B9800087B98000833
:1097D0007B9800080D9600080D9600087B980008FD
:1097E0007B9800087B9800087B9800087B9800080D
:1097F0007B9800087B9800087B9800087B980008FD
:109800007B9800087B9800087B9800087B980008EC
:109810007B9800087B9800087B9800087B980008DC
:109820007B9800087B9800087B9800087B980008CC
:109830007B9800087B9800087B9800087B980008BC
:109840007B9800087B9800087B9800087B980008AC
:109850007B9800087B9800087B9800087B9800089C
:109860007B9800087B9800087B9800087B9800088C
:109870000D9600089B68002B99D10121C7E676213F
:10988000FEF768FE002840F089800546E8E668217A
:10989000FEF760FE0028F8D000212046FFF780FE8A
:1098A0000F21002302462046BDE8F047FEF7C6BB65
:1098B0000021FEF74FFE0028E7D020460021FEF7EA
:1098C00049FE0028E1D000212046FFF769FE112162
:1098D000002302462046BDE8F047FEF7AFBB05393E
:1098E0000163FEF703FF0921002302462046BDE87D
:1098F000F047FEF7A3BB0A390163FEF7F7FE0A2122
:10990000002302462046BDE8F047FEF797BBFEF76E
:10991000EDFE0D21002302462046BDE8F047FEF78C
:109920008DBBFEF7E3FE1221002302462046BDE870
:10993000F047FEF783BBFEF7D9FE0C210023024659
:109940002046BDE8F047FEF779BBFEF7CFFE0E21BB
:10995000002302462046BDE8F047FEF76FBBFEF746
:10996000C5FE064604F10C00FEF7CAFD0028FFF60E
:1099700082AEE36818785F287FF47DAE013320461D
:10998000E360FEF7B3FE256B0B21334605352563F7
:1099900002462046BDE8F047FEF750BB00212046B6
:1099A000FFF7FEFD1021002302462046BDE8F047E8
:1099B000FEF744BBFFF786FC142100230246204635
:1099C000BDE8F047FEF73ABB562D51D0722D7FF41B
:1099D00052AE0C30FEF794FD01287FF74CAEE568DF
:1099E0002B78002B3FF447AE01355F2BE5607FF409
:1099F00042AE461E4FF000084FF00C094FF0390AF6
:109A00002A78002A59D0242A3CD0002716F0010FCA
:109A10002B4605D10137B7420BDB0EE0242A0CD0D0
:109A20000137B74209DA13F8012F32B1242A04D0E2
:109A3000013713F8012F002AF0D129463A46204673
:109A4000FEF74EFBE268D519E560034600283FF4B7
:109A50001CAFF61BB8F1000F31D19846002ECFDCB9
:109A60002046372142460023BDE8F047FEF7E6BA1C
:109A7000FFF728FC1321002302462046BDE8F047EB
:109A8000FEF7DCBA6B78532B2AD05F2B26D0242B21
:109A90007FF4F1AD6369A06983421ADA09FB03F12F
:109AA00020695D1C6561431813D0E568023E00F82B
:109AB00001A05A600235E560CCE71546D0E5424684
:109AC00020463821FEF7BAFA80460028C6D105465E
:109AD000C6E5E16800258B1CE360C1E52E22D9E7CD
:109AE0002F22D7E7C268034610785F2802D021B141
:109AF000002070470132DA6010785A28F8D101321C
:109B00001846DA604CE500BFC36870B504461A78A1
:109B10004C2A01D0002070BD591CC16093F801C0CF
:109B2000ACF15F02D2F1000E4EEB0201BCF15A0F14
:109B300014BF0B4641F0010353B10021FFF7D2FFE0
:109B4000E36893F800C0BCF1450F2CD0002070BD35
:109B5000FEF7CCFD0546002836D00678232E2AD005
:109B6000E16808786E2821D0352645282DD00028B8
:109B7000EDD04B1C01E00028E9D0E3601A4613F851
:109B8000010B4528F7D1521A2046FEF7A9FA3146B3
:109B90002A4603462046FEF751FAE36893F800C0D0
:109BA000BCF1450FD2D10133E36070BD01313626DF
:109BB000E1600878D9E74368187C0028D0D0226B90
:109BC0005968531A2363CBE770BD0022DCE700BF5E
:109BD000C268F0B50446137883B04C2B00F0848043
:109BE000542B00F08580732B51D0662B1ED0A3F12F
:109BF000300E5FFA8EFCBCF1090F32D96F2B02D107
:109C000053786E2B2BD02046FFF76AF9054650B1EA
:109C100006782C2E4DD02D2E6FD02E2E76D02C2EB9
:109C200000F096800025284603B0F0BD5578702DD1
:109C3000E9D1931CC360FEF7BBFC0028F2DB63692B
:109C4000A2699342EEDA03EB430122695D1C656170
:109C50008B00D518E7D068600620D054E3E70232C5
:109C6000C2602046FFF7C0F905460028DBD0E06857
:109C700001784929D7D12046FFF7CCFA04212A469A
:109C80000346204603B0BDE8F040FEF7D7B953784D
:109C9000722B47D0702BB6D1911CC160FFF798FF93
:109CA000412100230246204603B0BDE8F040FEF704
:109CB000C5B9476842F20401226BC0F60001BB68D7
:109CC0003868D218931E23630DF046FA002840D15D
:109CD0002046FEF70BFD034620462F212A4603B0FF
:109CE000BDE8F040FEF7AAB903B0BDE8F0400BE7CD
:109CF00003B0BDE8F040FEF777BC4368022B4AD0C2
:109D0000032B28D0012B8DD12E2E06D1E36893F89A
:109D100000C0BCF15F0F00F09E802046FFF758FFA7
:109D20000346D9E70232C260FEF7E0FC0546204652
:109D3000FFF75AF90646E0680378492B66D02046BB
:109D400001212A46334603B0BDE8F040FEF776B95C
:109D50004768FB68D2E72046FFF73AFF06462046F1
:109D6000FFF736FF07462046FFF732FF34213A4619
:109D700003462046FEF762F9332132460346204669
:109D8000FEF75CF932212A460346204603B0BDE8BF
:109D9000F040FEF753B96E6820463768FFF718FFAA
:109DA00042F20801C0F60001064638460DF0D4F92B
:109DB000002826D042F20C013846C0F600010DF012
:109DC000CBF940B142F210013846C0F600010DF067
:109DD000C3F900282CD12046FFF706F9E2680346B4
:109DE0001078492829D0312132462046FEF726F93D
:109DF00030212A460346204603B0BDE8F040FEF776
:109E00001DB9204600F02EF80346ECE72046FFF788
:109E100001FA0421324603462046FEF70FF90121DC
:109E20002A460346204603B0BDE8F040FEF706B9D7
:109E30002046FFF7CDFE0346D5E720460193FFF706
:109E4000E9F9019B04211A46074620463B46FEF7E6
:109E5000F5F80346C7E7591C2046E16000F002F818
:109E6000034639E7C368002270B582B00446019208
:109E70001978452918BF01AE08D101332A21C360E2
:109E8000134602B0BDE87040FEF7D8B82046FFF791
:109E90009FFE2A210023054620462A4675B1FEF77B
:109EA000CDF8306040B1E36800F108061A78452A21
:109EB000ECD10198591CE16002B070BD2846FBE767
:109EC0002DE9F84F044608460F460DF091FA8046FA
:109ED00000285CD0D4F8041100F1FF394FF0000ADB
:109EE00004F1040BFF2909F001093E786FD00B46FD
:109EF0000131012504EB030E4545C4F804118EF829
:109F0000046084F8086142D0B9F1000F29D0FF291C
:109F10007E5D6CD00B460131013504EB030C4545E9
:109F2000C4F804118CF8046084F8086119D16EE05B
:109F300004EB030C0135511CFF2AC4F8042113461D
:109F40008CF8046084F808617E5D22D0013504EB52
:109F5000030E4545C4F804118EF8046084F80861C6
:109F600033D0FF290B467E5D01F10102E0D1D4F828
:109F70000C315846D4F8102184F803A19847D4F83E
:109F80002401012200238118C4F82411D0E7BDE880
:109F9000F88F11465846D4F80C310135D4F8102109
:109FA00084F803A1984700230121D4F8242104EB6D
:109FB000030E454502EB0100C4F80411C4F8240166
:109FC0008EF8046084F80861CBD1BDE8F88FD4F82E
:109FD0000C315846D4F8102184F803A19847D4F8DE
:109FE0002451012153466A18C4F8242181E7D4F88A
:109FF0000C315846D4F8102184F803A19847D4F8BE
:10A000002421294600235019C4F8240184E7BDE81F
:10A01000F88F00BF2DE9F04F0D469BB00446002994
:10A0200000F0F780D0F81C01002840F0EA800B789F
:10A03000412B00F2EA8001A050F823F01BA2000897
:10A04000C3B80008C3B8000889B6000873C1000887
:10A050000DB600089BB400088FB4000869B400086E
:10A06000D3B3000811B2000899B10008D1B00008BC
:10A0700059B000082DBE0008A3BD0008FDC10008AE
:10A08000E1AF0008E3AC00084DAC0008D5AB000818
:10A0900045AA000835AE0008F9AD0008F9AD000882
:10A0A000F9AD00080DAA00080DAA00080DAA0008C5
:10A0B0000DAA00080DAA00080DAA00080DAA0008A4
:10A0C0000DAA00080DAA00084DA900089DB30008BC
:10A0D00019B300086DBF0008EDB20008EBBB000823
:10A0E000EDB2000887BB000887BB000897C30008D3
:10A0F00065A800087DC000084DBF000845A1000804
:10A100000BA2000835BB00080BA200080BA2000838
:10A110006FA400086FA40008DDA20008C7B3000800
:10A12000A9B30008CFBC0008DBA4000857B20008A0
:10A130000BA6000883A600080BA20008F3B80008CD
:10A1400001AF00088B6893F800C0BCF1310F5CD1FF
:10A150004A6816782C2E04F01D845968204606F0B3
:10A1600043FED5F8048042F2B401C0F60001D8F8ED
:10A1700004301F6838460CF0EFFF0646002843F015
:10A180006180D4F80411FF2904F01A8704EB010C54
:10A190005B204B1C84F808018CF804002046C4F8AE
:10A1A0000431A9688968FFF735FFD4F80411FF2945
:10A1B00004F0F58604EB010E5D20013184F80801FE
:10A1C0008EF80400C4F804116B6893F800C0BCF169
:10A1D0002C0F16D15B689968012912D15868037851
:10A1E0003E2B0ED1D4F80411FF2904F0C38704EBF1
:10A1F000010E2920013184F808018EF80400C4F80A
:10A2000004111BB0BDE8F08F009C0122C4F81C2192
:10A21000F7E70123C0F81C31F3E7226812F00409C4
:10A2200042F001848F68D1F80480002FE9D0D4F87F
:10A23000041107F1FF3B04F1040A0BF0010BFF29A5
:10A2400098F8006004F036850B460131012504EBD7
:10A25000030CAF42C4F804118CF8046084F8086160
:10A26000CFD0BBF1000F11D0FF2918F8056004F022
:10A27000A7850B460131013504EB030CAF42C4F84E
:10A2800004118CF8046084F80861BAD0FF290B46E9
:10A2900018F8056001F1010202F0D38504EB030C0C
:10A2A0000135511CFF2AC4F8042113468CF80460C0
:10A2B00084F8086118F80560DDD111465046D4F8DD
:10A2C0000C31D4F8102184F803919847D4F8240174
:10A2D000012100234218C4F82421CCE7D4F804114A
:10A2E000FF2903F01481621801316A20FF29C4F8A4
:10A2F0000411107184F8080103F02C8704EB010E9F
:10A3000001316123FF29C4F804118EF8043084F868
:10A31000083103F00C8704EB010C01317623FF298F
:10A32000C4F804118CF8043084F8083103F0EC868A
:10A3300004EB010E01316123FF29C4F804118EF8EA
:10A34000043084F8083103F0CC8604EB010C0131B1
:10A350002023FF29C4F804118CF8043084F8083154
:10A3600003F02A8004EB010E01317223FF29C4F8A7
:10A3700004118EF8043084F8083103F00A8004EBED
:10A38000010C01316523FF29C4F804118CF8043055
:10A3900084F8083102F0EA8704EB010E01317323DF
:10A3A000FF29C4F804118EF8043084F8083102F053
:10A3B000CA8704EB010C01316F23FF29C4F8041193
:10A3C0008CF8043084F8083102F0AA8704EB010EFF
:10A3D00001317523FF29C4F804118EF8043084F884
:10A3E000083102F08A8704EB010C01317223FF2946
:10A3F000C4F804118CF8043084F8083102F06A873C
:10A4000004EB010E01316323FF29C4F804118EF817
:10A41000043084F8083102F04A876218652301315C
:10A42000FF29C4F80411137184F808310ED0481CB8
:10A4300004EB010CC4F80401202120468CF8041020
:10A4400084F808116968FFF7E5FDDAE60026201DAB
:10A45000D4F80C31D4F8102184F803619847D4F86B
:10A460002421012031461318C4F82431E0E74A685A
:10A470001678232E02F086850026D4F80411FF29D1
:10A4800004F09781481C04EB010CC4F80401282156
:10A4900020468CF8041084F808116968FFF7BAFDAB
:10A4A000D4F80431FF2B04F09681591C04EB030C03
:10A4B000292084F808018CF8040095F800E0C4F81D
:10A4C0000411BEF1360F02F0CB85082E02F0828512
:10A4D0002046A968FFF79EFD93E6D4F80411FF29F2
:10A4E00003F0D08604EB010E01316420FF29C4F88B
:10A4F00004118EF8040084F8080103F0B08604EB20
:10A50000010C01316520FF29C4F804118CF8040006
:10A5100084F8080103F0908604EB010E01316320FA
:10A52000FF29C4F804118EF8040084F8080103F030
:10A53000708604EB010C01316C20FF29C4F8041172
:10A540008CF8040084F8080103F0508604EB010E37
:10A5500001317420FF29C4F804118EF8040084F836
:10A56000080103F0308604EB010C01317920FF294A
:10A57000C4F804118CF8040084F8080103F0108674
:10A5800004EB010E01317020FF29C4F804118EF88C
:10A59000040084F8080103F0F08504EB010C01319C
:10A5A0006520FF29C4F804118CF8040084F8080120
:10A5B00003F0678204EB010E01312020FF29C4F86B
:10A5C00004118EF8040084F8080102F02980481C68
:10A5D00004EB010CC4F80401282120468CF8041077
:10A5E00084F808116968FFF715FDD4F80411FF29F4
:10A5F00002F004864A1C04EB010E2920C4F8042151
:10A600008EF8040084F80801FBE5CF4E4FF0000AF5
:10A61000D4F8041104F1040B06F11C08A94619E052
:10A6200004EB030E6E1C511CFF2AC4F804211346D0
:10A630008EF8047084F808716D7802F0128104EBD2
:10A64000030C4645C4F8041184F808518CF80450F2
:10A6500002F06580751CFF290B46777801F1010235
:10A66000DED1D4F80C315846D4F8102184F803A177
:10A670009847D4F8246101220023B118C4F82411AA
:10A68000CEE7D4F80411FF2903F0348462180131B5
:10A690007B27FF29C4F80411177184F8087103F0AF
:10A6A000168404EB010C01316C20FF29C4F804115D
:10A6B0008CF8040084F8080103F0F68304EB010E23
:10A6C00001316123FF29C4F804118EF8043084F8A5
:10A6D000083103F0D68304EB010C01316D20FF2912
:10A6E000C4F804118CF8040084F8080103F0B68360
:10A6F00004EB010E01316227FF29C4F804118EF822
:10A70000047084F8087103F0968304EB010C0131A6
:10A710006420FF29C4F804118CF8040084F80801AF
:10A7200003F0768304EB010E01316123FF29C4F8A5
:10A7300004118EF8043084F8083101F05F87481C5A
:10A7400004EB010CC4F80401282120468CF8041005
:10A7500084F808116968FFF75DFCD4F80411FF293B
:10A7600003F0858204EB010E01312920FF29C4F892
:10A7700004118EF8040084F8080101F01C874A1CBB
:10A7800061182320C4F8042108AF087142F2D801EF
:10A7900084F80801C0F60001AA68384601320CF0BE
:10A7A000B3FC38460CF024FE002801F0BF87D4F833
:10A7B00004116FEA070A3E183D46FF290AEB060915
:10A7C0004FF0000804F1040A09F0010915F8017BB3
:10A7D00004F025800B46013104EB030EB542C4F8AA
:10A7E000041184F808718EF8047001F0A187B9F1A2
:10A7F000000F11D0FF2915F8017B04F082800B4671
:10A80000013104EB030CB542C4F8041184F808715B
:10A810008CF8047001F08C874A1CFF290B4615F850
:10A82000017B02F0CD8004EB030C511CFF2AC4F81D
:10A8300004218CF80470134684F8087115F8017B24
:10A84000DFD1D4F80C315046114684F80381D4F896
:10A8500010219847D4F82421012100235018C4F86E
:10A860002401CEE7D4F80411FF2902F0588704EB45
:10A87000010E01316F20FF29C4F804118EF8040085
:10A8800084F8080102F0388704EB010C01317020D4
:10A89000FF29C4F804118CF8040084F8080102F0C0
:10A8A000188704EB010E01316520FF29C4F804115B
:10A8B0008EF8040084F8080102F0F88604EB010C1D
:10A8C00001317220FF29C4F804118CF8040084F8C7
:10A8D000080102F0D88604EB010E01316120FF2946
:10A8E000C4F804118EF8040084F8080102F0B88658
:10A8F00004EB010C01317420FF29C4F804118CF819
:10A90000040084F8080102F0988604EB010E01317E
:10A910006F20FF29C4F804118EF8040084F80801A0
:10A9200002F0788604EB010C01317220FF29C4F893
:10A9300004118CF8040084F8080101F02A86481CF0
:10A940006218202300F098BDFF200008276817F048
:10A95000040942F0F1804968D1F804800F68B8F129
:10A96000000F3FF44EACD4F8041108F1FF3504F1A8
:10A97000040A05F0010BFF293E7804F077810B46AD
:10A9800001310125E218A845C4F80411167184F8B4
:10A9900008613FF436ACBBF1000F11D0FF297E5D9A
:10A9A00004F027820B460131013504EB030CA84566
:10A9B000C4F804118CF8046084F808613FF421ACF9
:10A9C000FF290B467E5D01F1010202F0298204EBB2
:10A9D000030C0135511CFF2AC4F8042113468CF8DE
:10A9E000046084F808617E5DDED111465046D4F8DB
:10A9F0000C31D4F8102184F803919847D4F824211D
:10AA0000012100235018C4F82401CDE7D4F818110F
:10AA10001AAAD4F814312046099542F8481DC4F802
:10AA20001821696800220B930A92FFF7F3FA0A9B38
:10AA30001BB92046294604F0EFFB0898C4F818011A
:10AA4000FFF7DFBBD4F80411FF2902F0B4866218C7
:10AA500001316823FF29C4F80411137184F8083107
:10AA600002F0968604EB010E01316923FF29C4F838
:10AA700004118EF8043084F8083102F0E78604EB04
:10AA8000010C01316426FF29C4F804118CF804601C
:10AA900084F8086102F0C88604EB010E01316423DA
:10AAA000FF29C4F804118EF8043084F8083102F04C
:10AAB000A88604EB010C01316520FF29C4F80411BC
:10AAC0008CF8040084F8080102F0888604EB010E7B
:10AAD00001316E20FF29C4F804118EF8040084F8B7
:10AAE000080102F0FF8604EB010C01312020FF2950
:10AAF000C4F804118CF8040084F8080102F0DF8621
:10AB000004EB010E01316120FF29C4F804118EF815
:10AB1000040084F8080102F0BF8604EB010C013147
:10AB20006C20FF29C4F804118CF8040084F8080193
:10AB300002F09F8604EB010E01316920FF29C4F861
:10AB400004118EF8040084F8080102F0F18604EB89
:10AB5000010C01316120FF29C4F804118CF80400B4
:10AB600084F8080102F0D186621873230131FF29AD
:10AB7000C4F80411137184F8083101F04D8604EB18
:10AB8000010E01312023FF29C4F804118EF804308E
:10AB900084F8083101F02D8604EB010C01316623A5
:10ABA000FF29C4F804118CF8043084F8083101F04E
:10ABB0000D8604EB010E01316F23FF29C4F8041147
:10ABC0008EF8043084F8083101F0ED8562187223A4
:10ABD000013125E4C84E4FF0000AD4F8041104F105
:10ABE000040B06F11808A94619E004EB030C6E1CCF
:10ABF000511CFF2AC4F8042113468CF8047084F811
:10AC000008716D7801F01B8604EB030E4645C4F80D
:10AC1000041184F808518EF8045001F08085751CE9
:10AC2000FF290B46777801F10102DED15846D4F8AE
:10AC3000102184F803A1D4F80C61B047D4F8241192
:10AC4000012200238818C4F82401CEE7DFF8AC8283
:10AC50004FF0000AD4F8041104F1040B4646FF2912
:10AC600016F8127D02F077860B46013104EB0309DA
:10AC7000C4F8041184F8087189F80470A94619E031
:10AC800004EB030E6E1C511CFF2AC4F8042113466A
:10AC90008EF8047084F808716D7801F0188604EB62
:10ACA000030C4645C4F8041184F808518CF804508C
:10ACB00001F03585751CFF290B46777801F10102FB
:10ACC000DED1D4F80C315846D4F8102184F803A111
:10ACD0009847D4F8246101220023B118C4F8241144
:10ACE000CEE7D4F80411FF2902F0FE8304EB010C37
:10ACF00001316A20FF29C4F804118CF8040084F89B
:10AD0000080102F0DE8304EB010E01316120FF290E
:10AD1000C4F804118EF8040084F8080102F0BE8320
:10AD200004EB010C01317620FF29C4F804118CF8E2
:10AD3000040084F8080102F09E8304EB010E013147
:10AD40006120FF29C4F804118EF8040084F808017A
:10AD500002F07E8304EB010C01312020FF29C4F8AE
:10AD600004118CF8040084F8080102F05E8304EBFF
:10AD7000010E01314320FF29C4F804118EF80400AC
:10AD800084F8080102F03E8304EB010C01316C20D1
:10AD9000FF29C4F804118CF8040084F8080102F0BB
:10ADA0001E8304EB010E01316120FF29C4F8041158
:10ADB0008EF8040084F8080102F0F38304EB010C20
:10ADC00001317326FF29C4F804118CF8046084F85B
:10ADD00008617FF4C9AED4F80C310022201D84F83C
:10ADE0000321D4F810219847D4F824310121267189
:10ADF0005818C4F82401C2E6D4F8181100293FF409
:10AE000007AE0A4603E01268002A3FF401AE9068DC
:10AE10000028F8D150680078A0F11706F6B2022E8B
:10AE20003FF6F6AD8342EED120466968FFF7F2F8AF
:10AE3000FFF7E7B98F68D1F80480002F3FF4E1A94C
:10AE4000D4F8041107F1FF394FF0000A04F1040BA4
:10AE5000FF2909F0010998F8006003F013850B46FB
:10AE60000131012504EB030CAF42C4F804118CF846
:10AE7000046084F808613FF4C4A9B9F1000F12D04E
:10AE8000FF2918F8056003F05B850B460131013599
:10AE900004EB030CAF42C4F804118CF8046084F88E
:10AEA00008613FF4AEA9FF290B4618F8056001F1CF
:10AEB000010201F0A78504EB030C0135511CFF2AA8
:10AEC000C4F8042113468CF8046084F8086118F86B
:10AED0000560DCD111465846D4F80C31D4F8102165
:10AEE00084F803A19847D4F82421012100235018A5
:10AEF000C4F82401CBE700BF972000089620000883
:10AF000020464968FDF73AFA002803F0878702785F
:10AF10002B2A7FF476A9416800293FF472A9002604
:10AF200007E090F800B0BBF12B0F06D1436823B1C6
:10AF30003E468068771C0028F3D1D5F804804FF096
:10AF4000000A2046C4F820A141467D1EFFF762F8A2
